:1000000000308A004F2800001030B4000830B500DE
:100010000430B6000230B7000130B800B301330835
:100020001D3C031C4C28B2013208043C031C4A2826
:100030003208300784008313311883170008B90091
:100040008316860183123908860034303207840013
:1000500083130008B9000030AF00831687018312B4
:10006000390887002830B90039308400831300082C
:10007000031948280130F800F701F70B3D28F80B69
:100080003C284A30F700F70B43284628800B3A28D3
:10009000B20A1428B30A0F280130F8000800FF3014
:1000A000AF0083161F149F141F159F1107309C006B
:1000B00083131F30830580308312A000F730A10026
:1000C000EB30A200DD30A300BE30A400FE30A5005E
:1000D000A6008030A700FE30A800A900C030AA000A
:1000E000BF30AB00AC00AD00C030AE0000308316B6
:1000F000860087008312AF00831686018312860173
:10010000AF008316870183128701B1012030B00050
:100110000420B1012530B0000420B1012A30B00024
:06012000042085286300A5
:02400E00313F40
:00000001FF
;PIC16F877A
;CRC=7BE2  CREATED="17-Nis-23 18:05"
